:020000040000FA
:040000000FEF3CF0D2
:10781E000001B3EF3DF0020E926E000E956E120057
:10782E00000E806E000E836E120012EC3CF017EC10
:10783E003CF01200000E026E010E016E000E046E80
:10784E00010E036ED9EC3EF0C280AA0EC06E12007D
:10785E00C30EC216025007E1030E015CD8B03AEF18
:10786E003CF03CEF3CF040EF3CF00144E846FC0BB2
:10787E00C212C282C2B246EF3CF048EF3CF041EF7A
:10788E003CF0C4CF03F0046A0350046E036AC35085
:10789E000326000E042203C001F004C002F0120001
:1078AE00000E0114096E000E02140A6E800E0314EF
:1078BE000B6E7F0E04140C6E09500A100B100C1078
:1078CE00D8A46CEF3CF06EEF3CF076EF3CF0000E7F
:1078DE00016E000E026E000E036E000E046E000EA0
:1078EE000514096E000E06140A6E800E07140B6E38
:1078FE007F0E08140C6E09500A100B100C10D8A431
:10790E008BEF3CF08DEF3CF095EF3CF0000E056EEA
:10791E00000E066E000E076E000E086E04AE9AEF95
:10792E003CF09CEF3CF0A5EF3CF0016C021ED8B091
:10793E00022A031ED8B0032A800E045608AEAAEF00
:10794E003CF0ACEF3CF0B5EF3CF0056C061ED8B049
:10795E00062A071ED8B0072A800E0856000E011AF6
:10796E00000E021A000E031A800E041A000E051ADB
:10797E00000E061A000E071A800E081A0550015C3A
:10798E00065002580750035808500458D8B0D2EF8A
:10799E003CF0D4EF3CF0D7EF3CF0D890D8EF3CF071
:1079AE00D88012000D6E0D50D8B4E0EF3CF0E2EF2F
:1079BE003CF004EF3DF008BEE9EF3CF0E7EF3CF0A1
:1079CE0004EF3DF005C009F006C00AF007C00BF049
:1079DE0008C00CF0091E0A1E0B1E0C1E092A000EF2
:1079EE000A220B220C2209C00FF00AC010F00BC0A5
:1079FE0011F00CC012F00CEF3DF005C00FF006C0F8
:107A0E0010F007C011F008C012F005500610071054
:107A1E000810D8A415EF3DF017EF3DF021EF3DF023
:107A2E00000E056E000E066E000E076E000E086E3E
:107A3E00B2EF3DF0960E0E6E2BEF3DF00E2AD89063
:107A4E001232113210320F32000E0F14096E000E68
:107A5E0010140A6E000E11140B6EFE0E12140C6E24
:107A6E0009500A100B100C10D8A440EF3DF042EF55
:107A7E003DF025EF3DF050EF3DF00E2A010E0F26A2
:107A8E00000E102211221222D89012321132103210
:107A9E000F32000E0F14096E000E10140A6E000E37
:107AAE0011140B6EFF0E12140C6E09500A100B10EF
:107ABE000C10D8A465EF3DF067EF3DF044EF3DF0BC
:107ACE006FEF3DF00E06D8900F3610361136123687
:107ADE0011BE74EF3DF076EF3DF07EEF3DF0020EFD
:107AEE000E607CEF3DF07EEF3DF069EF3DF00EB0A5
:107AFE0083EF3DF085EF3DF086EF3DF0119ED8907F
:107B0E000E320EC009F00A6A0B6A0C6A09C00CF03C
:107B1E000B6A0A6A096A09500F120A5010120B50AA
:107B2E0011120C5012120D50D8B4A0EF3DF0A2EF6E
:107B3E003DF0AAEF3DF008BEA9EF3DF0A7EF3DF0F6
:107B4E00AAEF3DF0128E0FC005F010C006F011C066
:107B5E0007F012C008F012001CEC3CF021EC3CF0D7
:107B6E00000E026E010E016E2FEC3CF001C005F00E
:107B7E0002C006F0000E06BEFF0E076E086E010E66
:107B8E00D9EC3CF005C013F006C014F007C015F098
:107B9E0008C016F013C001F014C002F015C003F0B7
:107BAE0016C004F0000E056E000E066E800E076EF7
:107BBE003F0E086E57EC3CF0D8B0E8EF3DF0EAEF20
:107BCE003DF0EEEF3DF0000E836EB7EF3DF013C0CB
:107BDE0001F014C002F015C003F016C004F09A0EA6
:107BEE00056E990E066EFF0E076E420E086E57EC6E
:107BFE003CF0D8B005EF3EF007EF3EF00BEF3EF055
:107C0E00010E836EB7EF3DF013C001F014C002F009
:107C1E0015C003F016C004F0000E056EC00E066E01
:107C2E007F0E076E430E086E57EC3CF0D8B022EF75
:107C3E003EF024EF3EF028EF3EF0030E836EB7EFDA
:107C4E003DF013C001F014C002F015C003F016C0D1
:107C5E0004F0000E056EC00E066EBF0E076E430ECC
:107C6E00086E57EC3CF0D8B03FEF3EF041EF3EF0DF
:107C7E0045EF3EF0070E836EB7EF3DF013C001F0F7
:107C8E0014C002F015C003F016C004F0CD0E056E40
:107C9E008C0E066E000E076E440E086E57EC3CF00E
:107CAE00D8B05CEF3EF05EEF3EF062EF3EF00F0EAE
:107CBE00836EB7EF3DF013C001F014C002F015C093
:107CCE0003F016C004F0660E056E860E066E200ECC
:107CDE00076E440E086E57EC3CF0D8B079EF3EF0CC
:107CEE007BEF3EF07FEF3EF01F0E836EB7EF3DF061
:107CFE0013C001F014C002F015C003F016C004F05A
:107D0E00000E056E800E066E400E076E440E086E57
:107D1E0057EC3CF0D8B096EF3EF098EF3EF09CEF6B
:107D2E003EF03F0E836EB7EF3DF013C001F014C06E
:107D3E0002F015C003F016C004F0330E056E730E7C
:107D4E00066E600E076E440E086E57EC3CF0D8B00F
:107D5E00B3EF3EF0B5EF3EF0B9EF3EF07F0E836E1F
:107D6E00B7EF3DF013C001F014C002F015C003F0E0
:107D7E0016C004F0000E056EC00E066E7F0E076E66
:107D8E00440E086E57EC3CF0D8B0D0EF3EF0D2EF78
:107D9E003EF0D5EF3EF08368B7EF3DF0B7EF3DF024
:107DAE0000EF00F002BEE7EF3EF0025007E1080ED2
:107DBE00015CD8B0E5EF3EF0E7EF3EF011EF3FF09B
:107DCE0003500410D8B4EEEF3EF0F0EF3EF000EFAB
:107DDE003FF001C005F0010E066E052AF9EF3EF0E8
:107DEE00D8900636052EF7EF3EF006509212FFEFB2
:107DFE003FF001C005F0010E066E052A09EF3FF0B7
:107E0E00D8900636052E07EF3FF00650FF0A921661
:107E1E00FFEF3FF002BE1FEF3FF0025007E1100EE2
:107E2E00015CD8B01DEF3FF01FEF3FF04DEF3FF07C
:107E3E0003500410D8B426EF3FF028EF3FF03AEF8E
:107E4E003FF001C005F0F80E0526010E066E052A5C
:107E5E0033EF3FF0D8900636052E31EF3FF0065047
:107E6E009312FFEF3FF001C005F0F80E0526010E4C
:107E7E00066E052A45EF3FF0D8900636052E43EFE5
:107E8E003FF00650FF0A9316FFEF3FF002BE5BEF86
:107E9E003FF0025007E1180E015CD8B059EF3FF0E9
:107EAE005BEF3FF089EF3FF003500410D8B462EF60
:107EBE003FF064EF3FF076EF3FF001C005F0F00EBB
:107ECE000526010E066E052A6FEF3FF0D890063696
:107EDE00052E6DEF3FF006509412FFEF3FF001C0FC
:107EEE0005F0F00E0526010E066E052A81EF3FF015
:107EFE00D8900636052E7FEF3FF00650FF0A9416F7
:107F0E00FFEF3FF002BE97EF3FF0025007E1200E69
:107F1E00015CD8B095EF3FF097EF3FF0C5EF3FF023
:107F2E0003500410D8B49EEF3FF0A0EF3FF0B2EF35
:107F3E003FF001C005F0E80E0526010E066E052A7B
:107F4E00ABEF3FF0D8900636052EA9EF3FF0065066
:107F5E009512FFEF3FF001C005F0E80E0526010E69
:107F6E00066E052ABDEF3FF0D8900636052EBBEF04
:107F7E003FF00650FF0A9516FFEF3FF002BED3EF1B
:107F8E003FF0025007E1280E015CD8B0D1EF3FF070
:107F9E00D3EF3FF0FFEF3FF003500410D8B4DAEF09
:107FAE003FF0DCEF3FF0EEEF3FF001C005F0E00EEA
:107FBE000526010E066E052AE7EF3FF0D89006362D
:107FCE00052EE5EF3FF006509612FFEF3FF001C091
:107FDE0005F0E00E0526010E066E052AF9EF3FF0BC
:107FEE00D8900636052EF7EF3FF00650FF0A96168C
:027FFE0012006F
:020000040020DA
:08000000FFFFFFFFFFFFFFFF00
:020000040030CA
:0E000000000E381EFF8181FF0FC00FE00F4081
:00000001FF
